:020000004D2E83
:06000600000000000800EC
:10000C000F3083120313FC004730FD00FD0B0C284E
:0A001C00FC0B0C2800000000080097
:0E002600213083120313FD00FD0B1728080084
:1000340083120313E61B2028881121288815661BC8
:100044002528081126280815E61A2A2888102B289E
:100054008814661A2F2808103028081448183428E1
:10006400881635288812081603200812E6193C2839
:1000740088113D2888156619412808114228081559
:10008400E618462888104728881466184B28081054
:100094004C28081448185028881651288812081625
:1000A40003200812481C5828062059281320080049
:1000B40083120313E101E301E4011030E50004308D
:1000C400640203188628F0308600650983168600CA
:1000D400032003200F3083120605F0007008E200AD
:1000E4007008031980286308E100620803197E2858
:1000F400E20CE213E10A77280430E400E50D651010
:0E0104000430E307E40A61286108F0000800F7
:10011200063083120313FD00FD0B8D28000008003A
:100122008312031348106108E6001A2048140800DD
:10013200AB28803083120313DD00BE28C030DD00FF
:10014200BE289430DD00BE28D430DD00BE288030C9
:10015200DD00BE28831203135D08013A03199A28B1
:100162005D08023A03199F285D08033A0319A22881
:100172005D08043A0319A528A8285E03F0005D086B
:10018200F0077008DD007008E6001A204810E00150
:1001920060085F07840000080319D72860085F071A
:1001A20084000008E1009120E00AC92848140800F0
:1001B2005A207008DD000F300605F0000319E3280D
:0A01C2008920DC285D08F000080029
:1001CC0083120313F8010830FC00700DF80D74084D
:1001DC00F8020318F328F8070310F00DFC0BEB28BA
:0201EC00080009
:0E01EE008312031336088A00350882000800C9
:1001FC00831203137008F100F0010830FC00710841
:10020C00F40C03180D29FC0B0629F1010034031022
:10021C001229F40C0318F107F10CF00CFC0B0F294C
:02022C000800C8
:10022E00831203135808F2005A08F0005B08F1001D
:10023E000130DA02031CDB037008710403192D2947
:10024E007208840059088000F20A1B295808F00031
:02025E00080096
:1002600083120313DC0110305C02031861295C085F
:100270005A07F0005B080318013EF1007008B50052
:100280007108B600F7208A110A12F00070080319ED
:1002900061295C08373EF2005C085A07F0005B08F1
:1002A0000318013EF1007008B5007108B600F72090
:1002B0008A110A12F0007208840070088000DC0ABB
:1002C00033295C08373E840080015808DD00590856
:0A02D000DE003730DF00992008003F
:1002DA00831603178C1C732900006D2983120313DC
:1002EA00580803178D000313590803178C00831647
:1002FA008C130C150B08F0008B1355308D00AA30A7
:10030A008D008C14F01B8B298B138C298B170C11E5
:02031A000800D9
:10031C0083120313DA0103305A0203189C295A087A
:10032C005907840020308000DA0A91295A085907AD
:10033C0084008001DA035A085907DB000A30F40004
:10034C005808F000E6207808F0003030F0075B0821
:10035C008400700880000A30F4005808F000E62091
:10036C007008D8007008003A031DBD29BF29DA03B4
:04037C00A1290800AB
:10038000D9207008AF007008003A031DC929F00198
:10039000172A2F08103A031DD0294D30F000172AD4
:1003A0002F08013A031DD7293730F000172A2F08EC
:1003B000023A031DDE293830F000172A2F08033ACD
:1003C000031DE5293930F000172A2F08053A031DCF
:1003D000EC293430F000172A2F08063A031DF329C0
:1003E0003530F000172A2F08073A031DFA29363056
:1003F000F000172A2F08093A031D012A3130F000B6
:10040000172A2F080A3A031D082A3230F000172A4B
:100410002F080B3A031D0F2A3330F000172A2F083C
:100420000E3A031D162A3030F000172AF00108009A
:1004300083120313580803178D0083168C130C14B2
:0804400083120C08F000080013
:1004480083120313D90159085807840000080319B7
:10045800352A5908580784000008E1009120D90A74
:04046800272A080037
:10046C0083120313D901DA015808F2005808F3007B
:10047C00720884000008203A031D492A59085A04BE
:10048C00031D492A562A0130D9000030DA007208BF
:10049C0084000008F0007308840070088000F30AE0
:1004AC007208F100F20A710884000008003A031D7A
:0804BC003E2A5808F000080078
:1004C40083120313A401A201A101A0010130E600DB
:1004D4001A200130D8000130D9008E30DA000730FC
:1004E400DB003021A40180302406F0008030023A81
:1004F400700203189B2AC0217008AF007008003AEC
:1005040003197D2A2F084D3A031D8B2A0130A500BB
:10051400D42A2208F0000A30F400FE2030302F02E2
:10052400F10071087007A2002A30E1009120A40AAA
:10053400752A2208F000F00D7010F00D701070088C
:10054400A0007008D800FF30D9006D21013083125B
:100554000313D8000130D9002B30DA000730DB0058
:1005640030213430FC00F130FD00FD0BB72AFC0BC8
:10057400B72A000000000130D8000130D9001E3035
:10058400DA000730DB0030210B30FB002630FC00A2
:100594005D30FD00FD0BCC2AFC0BCC2AFB0BCC2AD6
:0605A40000000000080049
:1005AA0083120313A401A201A101A0010130A30037
:1005BA000130E6001A200130D8000130D900E830B5
:1005CA00DA000630DB0030210230D8000130D900D1
:1005DA00A030DA000730DB0030213030D800D901F2
:1005EA000530DA000030DB001721A4018030240630
:1005FA00F0008030043A700203181B2BC0217008E7
:10060A00AF007008003A0319032B2F084D3A031D57
:10061A00112B0130A500BA2B2408303E84002F0884
:10062A0080002A30E1009120A40AFB2AA10180302F
:10063A002106F0008030403A700203183A2B210854
:10064A00F000F00D7010F00D70107008A000700826
:10065A00D80018227008FF3A031D362B0313A30192
:10066A003A2B0313A20AA10A1C2B23080319582B9D
:10067A000130E6001A200130D8000130D9001130CB
:10068A00DA000730DB0030210B30FB002630FC009B
:10069A005D30FD00FD0B4F2BFC0B4F2BFB0B4F2B43
:1006AA0000000000BA2B0130E6001A200130D80001
:1006BA000130D9007030DA000730DB003021A401A4
:1006CA0080302406F0008030043A70020318842B2C
:1006DA0024082007D8002408303E84000008D900E6
:1006EA006D213430FC00F130FD00FD0B7A2BFC0B40
:1006FA007A2B0000000083120313A40A652B220838
:10070A00D8004E30D9008E214E30D8003622013022
:10071A00D8000130D9003830DA000730DB00302148
:10072A000230D8000130D9008E30DA000730DB0001
:10073A00302180302206F00080300A3A7002031815
:10074A00A92B3030E10091204E30D80024220B3002
:10075A00FB002630FC005D30FD00FD0BB22BFC0BCC
:0C076A00B22BFB0BB22B000000000800BB
:10077600831203135608840000080319CF2B56086A
:1007860084000008F1005708840071080006031D64
:10079600CF2BD60AD70ABB2B560884000008F000D8
:1007A600570884000008F002F101031CF103080059
:1007B600013083120313E6001A200130D8000130FD
:1007C600D900F630DA000630DB0030210230D800DE
:1007D6000130D900DA30DA000630DB0030210715A7
:0407E600F22B0800EA
:1007EA0083120313A4010130E6001A2087100711AF
:1007FA002E08031D192C0130D8000130D9005B30B6
:10080A00DA000730DB0030210230FB000430FC0044
:10081A00BA30FD00FD0B0F2CFC0B0F2CFB0B0F2C21
:10082A0000000130AE00AD010130D8000130D9001E
:10083A009C30DA000630DB0030210230D80001306B
:10084A00D900A030DA000730DB0030213030D80080
:10085A00D9010530DA000030DB001721A40180300D
:10086A002406F0008030043A70020318542CC02188
:10087A007008AF007008003A03193C2C2F084D3A53
:10088A00031D4A2C0130A500DE2C2408303E8400CA
:10089A002F0880002A30E1009120A40A342C30303D
:1008AA00D6002730D700BB2300307106031D5F2C0A
:1008BA0000307006031DA52C0130E6001A20013015
:1008CA00D8000230D9009830DA000730DB00302136
:1008DA000230D8000330D9006630DA000730DB0076
:1008EA0030210330FB000830FC007730FD00FD0B9F
:1008FA007C2CFC0B7C2CFB0B7C2C0330A6000130DF
:10090A00D8000130D9004430DA000730DB0030214A
:10091A000230D8000130D900BC30DA000630DB00E2
:10092A003021C0217008AF007008003A0319962CD4
:10093A002F08313A031DA32CD522A42C6222DD2CC8
:10094A00A6038030003AF000803026067002031CAD
:10095A00B12C0230A500DE2C0130E6001A2001304D
:10096A00D8000130D900AD30DA000630DB00302182
:10097A000230D8000130D9000430DA000730DB0039
:10098A0030212608D8004E30D9008E214E30D800AA
:10099A0036224E30D80024220330FB000830FC00F7
:1009AA007730FD00FD0BD72CFC0BD72CFB0BD72C7B
:0409BA00A50108008B
:1009BE0083120313A401A101A001AC010130E600D2
:1009CE001A20871007152D08031D052D0130D8009C
:1009DE000130D9008430DA000730DB0030210330DB
:1009EE00FB000830FC007730FD00FD0BFC2CFC0BEF
:1009FE00FC2CFB0BFC2C0130AD00AE010130D800FD
:100A0E000130D9005030DA000730DB0030213030B1
:100A1E00D800D9010530DA000030DB00172149304B
:100A2E00D800D9010530DA000030DB001721A4010F
:100A3E0080302406F0008030043A700203183F2DF7
:100A4E00C0217008AF007008003A0319272D2F0837
:100A5E004D3A031D352D0130A500ED2D2408303EF5
:100A6E0084002F0880002A30E1009120A40A1F2D57
:100A7E00A10180302106F0008030403A7002031848
:100A8E008C2D2108F000F00D7010F00D7010700814
:100A9E00A0007008D80018227008FF3A031D582DC8
:100AAE00892D0313A40180302406F0008030043A0F
:100ABE0070020318792D2408493ED500240820071A
:100ACE00D8001822031355088400700880001A30CD
:100ADE00FC00F830FD00FD0B722DFC0B722D00009A
:100AEE00A40A5A2D3030D6004930D700BB2300302F
:100AFE007106031D842D00307006031D892D0130F3
:100B0E00AC008C2D0313A10A402D2C080319B52D12
:100B1E000130E6001A200130D8000230D90098309A
:100B2E00DA000730DB0030210230D8000330D90064
:100B3E00CB30DA000630DB0030218714071103308A
:100B4E00FB000830FC007730FD00FD0BAC2DFC0BDC
:100B5E00AC2DFB0BAC2D0330A600ED2DA603803083
:100B6E00003AF000803026067002031CC12D0230C0
:100B7E00A500ED2D0130E6001A200130D80001301D
:100B8E00D900AD30DA000630DB0030210230D8005B
:100B9E000130D9000430DA000730DB00302126089E
:100BAE00D8004E30D9008E214E30D80036224E302D
:100BBE00D80024220330FB000830FC007730FD0003
:0E0BCE00FD0BE72DFC0BE72DFB0BE72D0800C0
:0A0BDC00FF308316031386000800A3
:100BE600F7208A110A128000840AB50A0319B60A88
:080BF600F003031DF32D0800BC
:100BFE008316031308128812081088100811881122
:100C0E008312081288128811081188100810062005
:100C1E000620062088140814081603200812062041
:100C2E0008160320081206200816032008120620B4
:100C3E0008100816032008120620081603200812B2
:100C4E00881088150816032008120620881108142B
:100C5E000816032008120810081603200812062092
:100C6E00081603200812081408160320081206207E
:100C7E000810081603200812881508158814081481
:0C0C8E0008160320081206204814080075
:100C9A0083120313A001A101A2010130A300A40140
:100CAA00A5010330A6003030A7003030A80030304C
:100CBA00A9003030AA00AB01AC01AD01AE01831628
:100CCA008701831287010715FF25EE250C30831251
:100CDA00E6001A200130E6001A200130D80001305F
:100CEA00D9007A30DA000730DB0030210330FB000C
:100CFA000830FC007730FD00FD0B812EFC0B812EA5
:100D0A00FB0B812E8E2EDF249A2EF5239A2EDB23BF
:100D1A009A2E2508003A0319882E2508013A031944
:0E0D2A008A2E2508023A03198C2E872E9B2E46
:100D380045346E3474346534723420344134443468
:100D48004D3449344E3420344B34653479343A3494
:020D5800003465
:100D5A00573472346F346E3467342034503461340B
:0E0D6A007334733477346F347234643400346D
:100D780032342D342034443445344C3445345434DE
:0E0D880045342034553453344534523400344D
:100D96004134433443344534533453342034473494
:0E0DA600523441344E34543445344434003415
:100DB40043344F344E345434413443345434203463
:0C0DC400413444344D3449344E34003482
:100DD0004E3465347734203455347334653472348A
:0C0DE00020344B34653479343A3400344C
:100DEC00533459345334543445344D3420344C3406
:0C0DFC004F3443344B344534443400344D
:100E08005434723469346534733420344C34653462
:0A0E1800663474343A342034003498
:100E22004D3465346D346F34723479342034463441
:0A0E320075346C346C342134003444
:100E3C0055345334453452342034443465346C3492
:0A0E4C0065347434653464340034F6
:100E5600443465346C346534743469346E346734C0
:0A0E660020342E342E342E340034D4
:100E700055347334653472342034533461347634E9
:080E80006534643421340034B0
:100E880031342D34203441344434443420345534FE
:080E9800533445345234003498
:100EA00045346E3474346534723420344B346534D4
:060EB00079343A340034ED
:100EB600413444344D3449344E3420344D344F3467
:060EC60044344534003401
:100ECC0045344C344834453446344E34413457342C
:040EDC005934003451
:100EE00053346134763469346E3467342E342E349E
:040EF0002E34003468
:100EF400573465346C3463346F346D346534213461
:040F04002134003460
:100F0800553453344534523420344D344F344434FA
:040F18004534003428
:100F1C0055345334453452342034493444343A34FF
:040F2C002034003439
:100F3000573445344C3443344F344D344534003405
:040F40002034003425
:02400E004A2F37
:00000001FF
