:02000000A42E2C
:06000600000000000800EC
:10000C000F3083120313FC004730FD00FD0B0C284E
:0A001C00FC0B0C2800000000080097
:0E002600213083120313FD00FD0B1728080084
:10003400063083120313FD00FD0B1E280000080088
:1000440083120313E601E801E9011030EA000430E9
:10005400690203184E28F03086006A098316860068
:10006400032003200F3083120605F0007008E70018
:100074007008031948286808E60067080319462829
:10008400E70CE713E60A3F280430E900EA0D6A109A
:0E0094000430E807E90A29286608F000080091
:1000A20083120313E61B5728881158288815661BEC
:1000B2005C2808115D280815E61A61288810622854
:1000C2008814661A66280810672808144B186B28CB
:1000D20088166C288812081603200812E61973285D
:1000E2008811742888156619782808117928081546
:1000F200E6187D2888107E28881466188228081041
:10010200832808144B18872888168828881208160E
:10011200032008124B1C8F28062090281320080069
:10012200831203134B106508E60051204B1408009C
:1001320022207008E5000F300605F0000319A328FD
:0A0142001A209C286508F000080050
:10014C00831203136108F2006308F0006408F100E5
:10015C000130E302031CE403700871040319BC288A
:10016C007208840062088000F20AAA286108F00074
:02017C00080079
:10017E0083120313F8010830FC00700DF80D74089B
:10018E00F8020318CC28F8070310F00DFC0BC42856
:02019E00080057
:1001A000E228803083120313E100F528C030E1001B
:1001B000F5289430E100F528D430E100F5288030AE
:1001C000E100F528831203136108013A0319D128CD
:1001D0006108023A0319D6286108033A0319D9289D
:1001E0006108043A0319DC28DF286203F000610883
:1001F000F0077008E1007008E60051204B10E401A0
:10020000640863078400000803190E296408630763
:1002100084000008E5009120E40A00294B1408003E
:1002200099207008D8007008003A031D1929F001C0
:1002300067295808103A031D20294D30F00067291E
:100240005808013A031D27293730F000672958085C
:10025000023A031D2E293830F00067295808033A66
:10026000031D35293930F00067295808053A031D68
:100270003C293430F00067295808063A031D432909
:100280003530F00067295808073A031D4A293630EF
:10029000F00067295808093A031D51293130F00050
:1002A000672958080A3A031D58293230F000672997
:1002B00058080B3A031D5F293330F00067295808AE
:1002C0000E3A031D66293030F0006729F00108005E
:0E02D0008312031339088A00380882000800E0
:1002DE0083120313DD015D085C0784000008031917
:1002EE0080295D085C0784000008E5009120DD0A86
:0402FE007229080059
:1003020083120313DD01DE015C08F2005C08F300D6
:10031200720884000008203A031D94295D085E04D7
:10032200031D9429A1290130DD000030DE0072088E
:1003320084000008F0007308840070088000F30A4B
:100342007208F100F20A710884000008003A031DE5
:0803520089295C08F000080095
:10035A0083120313DE0103305E020318BB295E0811
:10036A005D07840020308000DE0AB0295E085D0740
:10037A0084008001DE035E085D07DF000A30F400B6
:10038A005C08F000BF207808F0003030F0075F0802
:10039A008400700880000A30F4005C08F000BF2076
:1003AA007008DC007008003A031DDC29DE29DE0330
:0403BA00C02908004E
:1003BE0083120313E001103060020318102A600844
:1003CE005E07F0005F080318013EF1007008B800E8
:1003DE007108B90068218A110A12F0007008031919
:1003EE00102A60083A3EF20060085E07F0005F08CF
:1003FE000318013EF1007008B8007108B9006821B9
:10040E008A110A12F0007208840070088000E00A57
:10041E00E22960083A3E840080015C08E1005D0834
:0A042E00E2003A30E300D02008009D
:10043800831203135C0803178D0083168C130C14A6
:0804480083120C08F00008000B
:10045000831603178C1C2E2A0000282A83120313EC
:100460005C0803178D0003135D0803178C008316C7
:100470008C130C150B08F0008B1355308D00AA302F
:100480008D008C14F01B462A8B13472A8B170C11F6
:02049000080062
:10049200831203137008F100F0010830FC007108A8
:1004A200F40C0318582AFC0B512AF10100340310F2
:1004B2005D2AF40C0318F107F10CF00CFC0B5A2A1C
:0204C200080030
:1004C400831203133208013CF000F101031CF10311
:1004D4007008DC003330E100E2010530E300003055
:1004E400E400A620A40180302406F0008030043A01
:1004F40070020318992A10217008D8007008003A75
:1005040003197D2A58084D3A031D8F2A5C08B2004E
:10051400FF30F000FF30F100992A2408333E8400B4
:10052400580880002A30E5009120A40A752A0800A2
:1005340083120313A401A301A201A1010130E60067
:1005440051200130DC000130DD00D730DE000730FF
:10055400DF00DF21A40180302406F0008030023A5D
:1005640070020318D22A10217008D8007008003ACB
:100574000319B52A58084D3A031DC22AB2010E2B9D
:100584002308F0000A30F400492230305802F10008
:1005940071087007A3002A30E5009120A40AAD2A4F
:1005A4002308F000F00D7010F00D70107008A10019
:1005B4007008DC00FF30DD002822013083120313B1
:1005C400DC000130DD006B30DE000730DF00DF21AE
:1005D4000230FB00A030FC009230FD00FD0BF02A3D
:1005E400FC0BF02AFB0BF02A00000130DC00013088
:1005F400DD009230DE000730DF00DF210B30FB002E
:100604002630FC005D30FD00FD0B062BFC0B062B99
:0A061400FB0B062B0000000008009D
:10061E0083120313A401A301A201A1010130A000C2
:10062E000130E60051200130DC000130DD005D308C
:10063E00DE000730DF00DF210230DC000130DD009C
:10064E00FD30DE000730DF00DF216222FF30710651
:10065E00031D332BFF307006031D362BD82BA20142
:10066E0080302206F0008030403A70020318552B7D
:10067E002208F000F00D7010F00D70107008A1003F
:10068E007008DC001C227008FF3A031D512B031367
:10069E00A001552B0313A30AA20A372B2008031916
:1006AE00732B0130E60051200130DC000130DD00FB
:1006BE008530DE000730DF00DF210B30FB002630F7
:1006CE00FC005D30FD00FD0B6A2BFC0B6A2BFB0B57
:1006DE006A2B00000000D82B0130E60051200130BB
:1006EE00DC000130DD00E130DE000730DF00DF210D
:1006FE00A40180302406F0008030043A7002031802
:10070E00A22B24082107DC002408333E84000008B5
:10071E00DD0028220230FB00A030FC009230FD00EC
:10072E00FD0B972BFC0B972BFB0B972B00008312CB
:10073E000313A40A802B2308DC005130DD00AD2109
:10074E005130DC0081210130DC000130DD009F30B2
:10075E00DE000730DF00DF210230DC000130DD007B
:10076E00D730DE000730DF00DF2180302306F000B7
:10077E0080300A3A70020318C72B3030E500912002
:10078E005130DC006F210B30FB002630FC005D3059
:10079E00FD00FD0BD02BFC0BD02BFB0BD02B000048
:0407AE00000008003F
:1007B200831203135A08840000080319ED2B5A0808
:1007C20084000008F1005B08840071080006031D24
:1007D200ED2BDA0ADB0AD92B5A0884000008F00054
:1007E2005B0884000008F002F101031CF103080019
:1007F200013083120313E60051200130DC00013086
:10080200DD004F30DE000730DF00DF210230DC0088
:100812000130DD002230DE000730DF00DF2107106B
:10082200871007153C30A8008030003AF000803075
:10083200280670020318432C0230E1000F30E20058
:100842002530E300D0202808DC005130DD00AD2146
:100852005130DC0081210230E1000F30E2005130E2
:10086200E300D020A40180302406F00080301F3A3B
:1008720070020318412C0B1D402C0B11A40A342CBE
:0C088200A803152C0330AA00B2010800E6
:10088E0083120313A4010130E600512007108710D4
:10089E0007112C08031D8A2C0130DC000130DD000D
:1008AE00B730DE000730DF00DF210B30FB002630D3
:1008BE00FC005D30FD00FD0B622CFC0B622CFB0B73
:1008CE00622C000000000130AC00AB010130DC00F6
:1008DE000130DD000230DE000730DF00DF210230A4
:1008EE00DC000130DD00FD30DE000730DF00DF21EF
:1008FE006222FF307106031D862CFF307006031D29
:10090E00892C4C2DB52C0130DC000130DD00AB30D4
:10091E00DE000730DF00DF210230DC000130DD00B9
:10092E001330DE000730DF00DF2110217008D80001
:10093E007008003A03199C2C5808313A031DA92C53
:10094E000F23B42C5808323A031DAF2C9A22B42C24
:10095E0058084D3A031DB42CB2014C2D3330DA0039
:10096E002D30DB00D92300307106031DC02C003062
:10097E007006031D122D0130E60051200130DC00FF
:10098E000230DD00F530DE000730DF00DF210230FF
:10099E00DC000330DD000030DE000830DF00DF2138
:1009AE000B30FB002630FC005D30FD00FD0BDD2C16
:1009BE00FC0BDD2CFB0BDD2C000000000330AA002D
:1009CE000130DC000130DD00AB30DE000730DF002F
:1009DE00DF210230DC000130DD001330DE00073095
:1009EE00DF00DF2110217008D8007008003A0319CB
:1009FE00F92C5808313A031D062D0F23112D5808D6
:100A0E00323A031D0C2D9A22112D58084D3A031D12
:100A1E00112DB2014C2DAA038030003AF000803027
:100A2E002A067002031C1E2D0230B2004C2D01301E
:100A3E00E60051200130DC000130DD003130DE00F7
:100A4E000730DF00DF210230DC000130DD007830BE
:100A5E00DE000730DF00DF212A08DC005130DD0028
:100A6E00AD215130DC0081215130DC006F210B3083
:100A7E00FB002630FC005D30FD00FD0B442DFC0B11
:0C0A8E00442DFB0B442D0000000008006C
:100A9A0083120313A401A201A101A9010130E600F6
:100AAA0051200710871007152B08031D762D0130DA
:100ABA00DC000130DD00EB30DE000730DF00DF2133
:100ACA000B30FB002630FC005D30FD00FD0B6B2D6A
:100ADA00FC0B6B2DFB0B6B2D000000000130AB00F3
:100AEA00AC010130DC000130DD00C230DE0007302D
:100AFA00DF00DF214C30E100E2010530E300003085
:100B0A00E400A6206222FF307106031D8E2DFF30FD
:100B1A007006031D912D442EA20180302206F0009A
:100B2A008030403A70020318DE2D2208F000F00DE2
:100B3A007010F00D70107008A1007008DC001C2203
:100B4A007008FF3A031DAA2DDB2D0313A401803080
:100B5A002406F0008030043A70020318CB2D2408D2
:100B6A004C3ED90024082107DC001C220313590833
:100B7A008400700880001A30FC00F830FD00FD0B7C
:100B8A00C42DFC0BC42D0000A40AAC2D3330DA00AE
:100B9A004C30DB00D92300307106031DD62D0030FE
:100BAA007006031DDB2D0130A900DE2D0313A20AF6
:100BBA00922D290803190A2E0130E600512001302E
:100BCA00DC000230DD00F530DE000730DF00DF2117
:100BDA000230DC000330DD004030DE000730DF0089
:100BEA00DF210714871407110B30FB002630FC00A5
:100BFA005D30FD00FD0BFF2DFC0BFF2DFB0BFF2DC8
:100C0A00000000000330AA00442EAA038030003AF4
:100C1A00F00080302A067002031C162E0230B20041
:100C2A00442E0130E60051200130DC000130DD00A5
:100C3A003130DE000730DF00DF210230DC00013016
:100C4A00DD007830DE000730DF00DF212A08DC0013
:100C5A005130DD00AD215130DC0081215130DC0002
:100C6A006F210B30FB002630FC005D30FD00FD0BD0
:100C7A003C2EFC0B3C2EFB0B3C2E00000000080017
:0A0C8A00FF308316031386000800F4
:100C940068218A110A128000840AB80A0319B90A61
:080CA400F003031D4A2E0800B5
:100CAC008316031308128812081088100811881173
:100CBC008312081288128811081188100810062057
:100CCC000620062088140814081603200812062093
:100CDC000816032008120620081603200812062006
:100CEC000810081603200812062008160320081204
:100CFC00881088150816032008120620881108147D
:100D0C0008160320081208100816032008120620E3
:100D1C0008160320081208140816032008120620CF
:100D2C0008100816032008128815081588140814D2
:0C0D3C0008160320081206204B140800C3
:100D4800013083120313A000A101A201A301A40191
:100D58002030A5002030A600A7013C30A800A9013A
:100D68000330AA00AB01AC013030AD003030AE002A
:100D78003030AF003030B000B101B2018730831697
:100D88008100831281010B11831687018312870169
:100D98000715562645260C308312E60051200130EF
:100DA800E60051200130DC000130DD00CD30DE00EE
:100DB8000730DF00DF210B30FB002630FC005D3000
:100DC800FD00FD0BE52EFC0BE52EFB0BE52E0000D0
:100DD8000000F42E4D25002F4724002FF923002F63
:100DE8003208003A0319EE2E3208013A0319F02EA0
:0C0DF8003208023A0319F22EED2E012FF2
:100E040045346E347434653472342034413444349B
:100E14004D3449344E3420344B34653479343A34C7
:020E2400003498
:100E260032342D342034443445344C34453454342F
:0E0E360045342034553453344534523400349E
:100E44005334453443344F344E34443453342034CF
:0E0E54004C344534463454343A34203400349F
:100E6200573472346F346E34673420345034613402
:0E0E72007334733477346F3472346434003464
:100E800041344334433445345334533420344734A9
:0E0E9000523441344E3454344534443400342A
:100E9E00533459345334543445344D3420344C3453
:0C0EAE004F3443344B344534443400349A
:100EBA004E3465347734203455347334653472349F
:0C0ECA0020344B34653479343A34003461
:100ED600443465346C346534743469346E34673440
:0A0EE60020342E342E342E34003454
:100EF0005434723469346534733420344C3465347A
:0A0F0000663474343A3420340034AF
:100F0A004D3465346D346F34723479342034463458
:0A0F1A0075346C346C34213400345B
:100F240055345334453452342034443465346C34A9
:0A0F3400653474346534643400340D
:100F3E00553473346534723420345334613476341A
:080F4E006534643421340034E1
:100F560031342D342034413444344434203455342F
:080F66005334453452340034C9
:100F6E00413444344D3449344E3420344D344F34AE
:060F7E0044344534003448
:100F840045346E3474346534723420344B346534EF
:060F940079343A34003408
:100F9A00573465346C3463346F346D3465342134BA
:040FAA0021340034BA
:100FAE0055345334453452342034493444343A346D
:040FBE0020340034A7
:100FC20053346134763469346E3467342E342E34BB
:040FD2002E34003485
:100FD600553453344534523420344D344F3444342C
:040FE600453400345A
:100FEA00573445344C3443344F344D34453400344B
:040FFA00203400346B
:0C100000413444344D3449344E34003443
:02400E004A2F37
:00000001FF
