:02000000552F7A
:06000600000000000800EC
:10000C000F3083120313FC004730FD00FD0B0C284E
:0A001C00FC0B0C2800000000080097
:0E002600213083120313FD00FD0B1728080084
:1000340083120313E61B2028881121288815661BC8
:100044002528081126280815E61A2A2888102B289E
:100054008814661A2F2808103028081441183428E8
:10006400881635288812081603200812E6193C2839
:1000740088113D2888156619412808114228081559
:10008400E618462888104728881466184B28081054
:100094004C2808144118502888165128881208162C
:1000A40003200812411C5828062059281320080050
:1000B40083120313E601E801E9011030EA00043079
:1000C400690203188628F03086006A0983168600C0
:1000D400032003200F3083120605F0007008E700A8
:1000E4007008031980286808E600670803197E2849
:1000F400E70CE713E60A77280430E900EA0D6A10F2
:0E0104000430E807E90A61286608F0000800E8
:10011200063083120313FD00FD0B8D28000008003A
:100122005A207008E5000F300605F00003199B28DD
:0A013200892094286508F0000800F9
:10013C008312031341106508E6001A2041140800CD
:10014C00B828803083120313E100CB28C030E100C3
:10015C00CB289430E100CB28D430E100CB28803080
:10016C00E100CB28831203136108013A0319A72875
:10017C006108023A0319AC286108033A0319AF2845
:10018C006108043A0319B228B5286203F00061082B
:10019C00F0077008E1007008E6001A204110E40135
:1001AC0064086307840000080319E42864086307E3
:1001BC0084000008E5009E20E40AD62841140800BB
:1001CC0083120313F8010830FC00700DF80D74084D
:1001DC00F8020318F328F8070310F00DFC0BEB28BA
:0201EC00080009
:0E01EE008312031340088A003F0882000800B5
:1001FC0091207008D8007008003A031D0729F001FF
:10020C0055295808103A031D0E294D30F000552978
:10021C005808013A031D15293730F00055295808A4
:10022C00023A031D1C293830F00055295808033AAE
:10023C00031D23293930F00055295808053A031DB0
:10024C002A293430F00055295808063A031D312963
:10025C003530F00055295808073A031D3829363037
:10026C00F00055295808093A031D3F293130F00098
:10027C00552958080A3A031D46293230F0005529F1
:10028C0058080B3A031D4D293330F00055295808F6
:10029C000E3A031D54293030F0005529F0010800A6
:1002AC00831203136108F2006308F0006408F10084
:1002BC000130E302031CE4037008710403196C2978
:1002CC007208840062088000F20A5A296108F00062
:0202DC00080018
:1002DE00831203135D08003C031D77295C080A3C5A
:1002EE00031883290430FD00FD0B7B2900000A3022
:1002FE00DC02031CDD036F295D08003C031D892908
:0E030E005C08003C03188D2900000000080068
:10031C0083120313FB01FA01F9018030F800F10C90
:10032C00F00C031CA2297408F90775080318750F43
:10033C00FA070318FB0A0310F01FAA297408FA071E
:10034C0075080318750FFB07FB0CFA0CF90CF80C6D
:10035C00031C95297B08F3007A08F2007908F10058
:06036C007808F000080013
:1003720083120313DD015D085C0784000008031982
:10038200CA295D085C0784000008E5009E20DD0A9A
:04039200BC2908007A
:1003960083120313DE0103305E020318D9295E08B7
:1003A6005D07840020308000DE0ACE295E085D07E6
:1003B60084008001DE035E085D07DF000A30F4007A
:1003C6005C08F000E6207808F0003030F0075F089F
:1003D6008400700880000A30F4005C08F000E62013
:1003E6007008DC007008003A031DFA29FC29DE03B8
:0403F600DE290800F4
:1003FA00831603178C1C032A0000FD29831203139A
:10040A005C0803178D0003135D0803178C0083161D
:10041A008C130C150B08F0008B1355308D00AA3085
:10042A008D008C14F01B1B2A8B131C2A8B170C11A2
:02043A000800B8
:10043C0083120313DD01DE015C08F2005C08F3009B
:10044C00720884000008203A031D312A5D085E04FE
:10045C00031D312A3E2A0130DD000030DE00720817
:10046C0084000008F0007308840070088000F30A10
:10047C007208F100F20A710884000008003A031DAA
:08048C00262A5C08F0000800BC
:10049400831203133208013CF000F101031CF10341
:1004A4007008DC003A30E100E2010530E30000307E
:1004B400E4005621A40180302406F0008030043A80
:1004C40070020318812AFE207008D8007008003AD0
:1004D4000319652A58084D3A031D772A5C08B200AF
:1004E400FF30F000FF30F100812A24083A3E8400F6
:1004F400580880002A30E5009E20A40A5D2A0800DE
:10050400831203137008F100F0010830FC00710835
:10051400F40C0318912AFC0B8A2AF101003403100D
:10052400962AF40C0318F107F10CF00CFC0B932A37
:020534000800BD
:10053600831203135C0803178D0083168C130C14A7
:0805460083120C08F00008000C
:10054E0083120313E001103060020318D82A6008EA
:10055E005E07F0005F080318013EF1007008BF004F
:10056E007108C000F7208A110A12F00070080319F2
:10057E00D82A6008473EF20060085E07F0005F0868
:10058E000318013EF1007008BF007108C000F7208B
:10059E008A110A12F0007208840070088000E00AC6
:1005AE00AA2A6008473E840080015C08E1005D08CD
:0A05BE00E2004730E300A620080029
:1005C80083120313A401A301A201A1010130E600D3
:1005D8001A200130DC000130DD008830DE000830F0
:1005E800DF00A722A40180302406F0008030023A00
:1005F800700203181C2BFE207008D8007008003AFF
:100608000319FF2A58084D3A031D0C2BB201662B1B
:100618002308F0000A30F400822230305802F1003A
:1006280071087007A3002A30E5009E20A40AF72A63
:100638002308F000F00D7010F00D70107008A10084
:100648007008DC00FF30DD00FD210230FB00A03027
:10065800FC009230FD00FD0B2F2BFC0B2F2BFB0B0E
:100668002F2B0000013083120313DC000130DD0062
:100678002930DE000830DF00A7220630FB001330E7
:10068800FC00AD30FD00FD0B472BFC0B472BFB0B93
:10069800472B000000000130DC000130DD001C3079
:1006A800DE000830DF00A7220B30FB002630FC00FC
:1006B8005D30FD00FD0B5E2BFC0B5E2BFB0B5E2BF8
:0606C80000000000080024
:1006CE0083120313A401A301A201A1010130A00012
:1006DE000130E6001A200130DC000130DD00003070
:1006EE00DE000830DF00A7220230DC000130DD0022
:1006FE00B430DE000830DF00A7224A22FF30710638
:10070E00031D8B2BFF307006031D8E2B2E2CA2018A
:10071E0080302206F0008030403A70020318AD2B74
:10072E002208F000F00D7010F00D70107008A1008E
:10073E007008DC009B227008FF3A031DA92B0313DF
:10074E00A001AD2B0313A30AA20A8F2B20080319B5
:10075E00CA2B0130E6001A200130DC000130DD002A
:10076E004330DE000830DF00A7221530FB004B308F
:10077E00FC00BE30FD00FD0BC22BFC0BC22BFB0B95
:10078E00C22B00002E2C0130E6001A200130DC00B6
:10079E000130DD009230DE000830DF00A722A40118
:1007AE0080302406F0008030043A70020318F92BD2
:1007BE0024082107DC0024083A3E84000008DD00EE
:1007CE00FD210230FB00A030FC009230FD00FD0B3D
:1007DE00EE2BFC0BEE2BFB0BEE2B00008312031308
:1007EE00A40AD72B2308DC003330DD00CB213330B5
:1007FE00DC001E220130DC000130DD005030DE0056
:10080E000830DF00A7220230DC000130DD00883026
:10081E00DE000830DF00A72280302306F000803093
:10082E000A3A700203181E2C3030E5009E20333039
:10083E00DC00B9211530FB004B30FC00BE30FD0052
:10084E00FD0B272CFC0B272CFB0B272C0000080084
:10085E008030831203135B06F00080307002031D9C
:10086E003A2C00305A0203183E2CDA01DB0180309C
:10087E00F00080305B067002031D472C5A08B43C12
:10088E0003184C2CB430DA00DB015A08F0005B0878
:10089E00F1000A30F4000030F5008E217008583E49
:1008AE00DC0002300318013E7107DD0007146F21D2
:1008BE0007102D30FC002630FD00FD0B642CFC0BC8
:0608CE00642C000008008C
:1008D400831203135A088400000803197E2C5A0853
:1008E40084000008F1005B08840071080006031D01
:1008F4007E2CDA0ADB0A6A2C5A0884000008F0000D
:100904005B0884000008F002F101031CF1030800F5
:1009140083120313A4010130E6001A200710871084
:10092400071187112B08031DCD2C0130DC00013089
:10093400DD007330DE000830DF00A7221F30FB002B
:100944007130FC001E30FD00FD0BA62CFC0BA62C08
:10095400FB0BA62C00000130AB00AA010130DC0027
:100964000130DD00B230DE000730DF00A7220230A4
:10097400DC000130DD00B430DE000830DF00A722E7
:100984004A22FF307106031DC92CFF307006031D77
:10099400CC2C8D2DF82C0130DC000130DD005C30D6
:1009A400DE000830DF00A7220230DC000130DD0069
:1009B400C330DE000730DF00A722FE207008D80015
:1009C4007008003A0319DF2C5808313A031DEC2C47
:1009D4006723F72C5808323A031DF22CE422F72C33
:1009E40058084D3A031DF72CB2018D2D3A30DA0028
:1009F4002D30DB006A2400307106031D032D003006
:100A04007006031D542D0130E6001A200130DC006D
:100A14000230DD00A630DE000830DF00A7220230FD
:100A2400DC000330DD00AE30DE000830DF00A7223A
:100A34001530FB004B30FC00BE30FD00FD0B202DBB
:100A4400FC0B202DFB0B202D00000330AC000130EB
:100A5400DC000130DD005C30DE000830DF00A7225E
:100A64000230DC000130DD00C330DE000730DF007F
:100A7400A722FE207008D8007008003A03193B2D05
:100A84005808313A031D482D6723532D5808323A2C
:100A9400031D4E2DE422532D58084D3A031D532DAA
:100AA400B2018D2DAC038030003AF00080302C066A
:100AB4007002031C602D0230B2008D2D0130E6005F
:100AC4001A200130DC000130DD00E130DE000730A7
:100AD400DF00A7220230DC000130DD003630DE000A
:100AE4000830DF00A7222C08DC003330DD00CB21E6
:100AF4003330DC001E223330DC00B9211530FB001A
:100B04004B30FC00BE30FD00FD0B862DFC0B862D0A
:080B1400FB0B862D0000080018
:100B1C00013083120313E6001A200130DC0001308F
:100B2C00DD000E30DE000830DF00A7220230DC00D2
:100B3C000130DD00D230DE000730DF00A7220710C5
:100B4C008710071587153C30A8008030003AF0005C
:100B5C008030280670020318D92D0230E1000F30C6
:100B6C00E2002530E300A6202808DC003330DD004D
:100B7C00CB213330DC001E220230E1000F30E200CA
:100B8C003330E300A620A40180302406F00080302E
:100B9C001F3A70020318D72D0B1DD62D0B11A40A6A
:0E0BAC00CA2DA803AB2D0330AC00B201080027
:100BBA0083120313A401A201A101A9010130E600D5
:100BCA001A2007108710071587112A08031D062EF9
:100BDA000130DC000130DD009C30DE000830DF002F
:100BEA00A7221F30FB007130FC001E30FD00FD0BF8
:100BFA00FC2DFC0BFC2DFB0BFC2D00000130AA0088
:100C0A00AB010130DC000130DD006830DE00083065
:100C1A00DF00A7220230DC000130DD00B430DE0044
:100C2A000830DF00A7224230E100E2010530E3008C
:100C3A000030E40056214A22FF307106031D272E98
:100C4A00FF307006031D2A2EF52EA20180302206DF
:100C5A00F0008030403A70020318772E2208F00024
:100C6A00F00D7010F00D70107008A1007008DC0013
:100C7A009B227008FF3A031D432E742E0313A4010E
:100C8A0080302406F0008030043A70020318642E83
:100C9A002408423ED90024082107DC009B220313C2
:100CAA0059088400700880001A30FC00F830FD00F2
:100CBA00FD0B5D2EFC0B5D2E0000A40A452E3A307A
:100CCA00DA004230DB006A2400307106031D6F2E01
:100CDA0000307006031D742E0130A900772E03130D
:100CEA00A20A2B2E29080319BC2E0130E6001A206D
:100CFA000130DC000230DD00A630DE000830DF0003
:100D0A00A7220230DC000330DD00F030DE000730BD
:100D1A00DF00A722071487140711A40180302406D4
:100D2A00F0008030323A70020318A12EB430DA0093
:100D3A00DB012F24A40A932E6630FB007630FC00D8
:100D4A00C130FD00FD0BA72EFC0BA72EFB0BA72E17
:100D5A00A40180302406F0008030323A7002031871
:100D6A00BB2EDA01DB012F24A40AAE2EF52EAC032A
:100D7A008030003AF00080302C067002031CC82E26
:100D8A000230B200F52E0130E6001A200130DC00F4
:100D9A000130DD00E130DE000730DF00A72202303B
:100DAA00DC000130DD003630DE000830DF00A7222B
:100DBA002C08DC003330DD00CB213330DC001E226E
:100DCA003330DC00B9211530FB004B30FC00BE305B
:100DDA00FD00FD0BEE2EFC0BEE2EFB0BEE2E0000A3
:020DEA000800FF
:0A0DEC00FF30831603138600080091
:100DF600F7208A110A128000840ABF0A0319C00A62
:080E0600F003031DFB2E0800A0
:100E0E00831603130812881208108810081188110F
:100E1E0083120812881288110811881008100620F3
:100E2E00062006208814081408160320081206202F
:100E3E0008160320081206200816032008120620A2
:100E4E0008100816032008120620081603200812A0
:100E5E008810881508160320081206208811081419
:100E6E000816032008120810081603200812062080
:100E7E00081603200812081408160320081206206C
:100E8E00081008160320081288150815881408146F
:0C0E9E000816032008120620411408006A
:100EAA00013083120313A000A101A201A301A4012E
:100EBA002030A5002030A600A7013C30A800A901D7
:100ECA00AA01AB010330AC003030AD003030AE00C7
:100EDA003030AF003030B000B101B2018730831634
:100EEA008100831281010B11831687018312870106
:100EFA0007150727F6260C308312E6001A20013060
:100F0A00E6001A200130DC000130DD007E30DE0010
:100F1A000830DF00A7221F30FB007130FC001E30B2
:100F2A00FD00FD0B962FFC0B962FFB0B962F000056
:100F3A00A42FDD25B02F8A24B02F8E25B02F32089A
:100F4A00003A03199E2F3208013A0319A02F3208DA
:0A0F5A00023A0319A22F9D2FB12FB8
:100F640045346E347434653472342034413444343A
:100F74004D3449344E3420344B34653479343A3466
:020F8400003437
:100F860032342D342034443445344C3445345434CE
:0E0F960045342034553453344534523400343D
:100FA4005334453443344F344E344434533420346E
:0E0FB4004C344534463454343A34203400343E
:100FC200573472346F346E346734203450346134A1
:0E0FD2007334733477346F3472346434003403
:100FE0004134433443344534533453342034473448
:0E0FF000523441344E345434453444340034C9
:101000004E34653477342034553473346534723457
:0C10100020344B34653479343A34003419
:10101C00533459345334543445344D3420344C34D3
:0C102C004F3443344B344534443400341A
:1010380055345334453452342034443465346C3494
:0A10480065347434653464340034F8
:10105200443465346C346534743469346E346734C2
:0A10620020342E342E342E340034D6
:10106C005434723469346534733420344C346534FC
:0A107C00663474343A342034003432
:101086004D3465346D346F347234793420344634DB
:0A10960075346C346C3421340034DE
:1010A00055347334653472342034533461347634B7
:0810B00065346434213400347E
:1010B80031342D34203441344434443420345534CC
:0810C800533445345234003466
:1010D00045346E3474346534723420344B346534A2
:0610E00079343A340034BB
:1010E600413444344D3449344E3420344D344F3435
:0610F600443445340034CF
:1010FC00573465346C3463346F346D346534213457
:04110C002134003456
:1011100055345334453452342034493444343A3409
:041120002034003443
:1011240053346134763469346E3467342E342E3457
:041134002E34003421
:10113800553453344534523420344D344F344434C8
:0411480045340034F6
:10114C00573445344C3443344F344D3445340034E7
:0C115C00413444344D3449344E340034E6
:0411680020340034FB
:02400E004A2F37
:00000001FF
